{
  "contractName": "Increments",
  "abi": [
    {
      "constant": true,
      "inputs": [],
      "name": "incrementBy",
      "outputs": [
        {
          "name": "",
          "type": "uint256"
        }
      ],
      "payable": false,
      "stateMutability": "view",
      "type": "function",
      "signature": "0x3c001eb2"
    },
    {
      "constant": true,
      "inputs": [],
      "name": "currentValue",
      "outputs": [
        {
          "name": "",
          "type": "uint256"
        }
      ],
      "payable": false,
      "stateMutability": "view",
      "type": "function",
      "signature": "0x698996f8"
    },
    {
      "constant": true,
      "inputs": [],
      "name": "owner",
      "outputs": [
        {
          "name": "",
          "type": "address"
        }
      ],
      "payable": false,
      "stateMutability": "view",
      "type": "function",
      "signature": "0x8da5cb5b"
    },
    {
      "inputs": [
        {
          "name": "_initIncrement",
          "type": "uint256"
        }
      ],
      "payable": false,
      "stateMutability": "nonpayable",
      "type": "constructor",
      "signature": "constructor"
    },
    {
      "constant": false,
      "inputs": [],
      "name": "increment",
      "outputs": [],
      "payable": false,
      "stateMutability": "nonpayable",
      "type": "function",
      "signature": "0xd09de08a"
    },
    {
      "constant": false,
      "inputs": [
        {
          "name": "_newIncrement",
          "type": "uint256"
        }
      ],
      "name": "changeIncrement",
      "outputs": [],
      "payable": false,
      "stateMutability": "nonpayable",
      "type": "function",
      "signature": "0xb983718f"
    }
  ],
  "bytecode": "0x608060405234801561001057600080fd5b506040516020806103488339810180604052602081101561003057600080fd5b8101908080519060200190929190505050336000806101000a81548173ffffffffffffffffffffffffffffffffffffffff021916908373ffffffffffffffffffffffffffffffffffffffff16021790555080600281905550506102b0806100986000396000f3fe60806040526004361061006d576000357c0100000000000000000000000000000000000000000000000000000000900463ffffffff1680633c001eb214610072578063698996f81461009d5780638da5cb5b146100c8578063b983718f1461011f578063d09de08a1461015a575b600080fd5b34801561007e57600080fd5b50610087610171565b6040518082815260200191505060405180910390f35b3480156100a957600080fd5b506100b2610177565b6040518082815260200191505060405180910390f35b3480156100d457600080fd5b506100dd61017d565b604051808273ffffffffffffffffffffffffffffffffffffffff1673ffffffffffffffffffffffffffffffffffffffff16815260200191505060405180910390f35b34801561012b57600080fd5b506101586004803603602081101561014257600080fd5b81019080803590602001909291905050506101a2565b005b34801561016657600080fd5b5061016f610270565b005b60025481565b60015481565b6000809054906101000a900473ffffffffffffffffffffffffffffffffffffffff1681565b6000809054906101000a900473ffffffffffffffffffffffffffffffffffffffff1673ffffffffffffffffffffffffffffffffffffffff163373ffffffffffffffffffffffffffffffffffffffff16141515610266576040517f08c379a00000000000000000000000000000000000000000000000000000000081526004018080602001828103825260168152602001807f596f7520617265206e6f7420746865206f776e65722e0000000000000000000081525060200191505060405180910390fd5b8060028190555050565b60025460016000828254019250508190555056fea165627a7a723058202c8ba5961554e047d910483665db762180645b685d15815b741b6102d25c38740029",
  "source": "pragma solidity >=0.4.21 <0.6.0;\n\ncontract Increments {\n    address public owner;\n    uint public currentValue;\n    uint public incrementBy;\n\n    constructor(uint _initIncrement) public {\n        owner = msg.sender;\n        incrementBy = _initIncrement;\n    }\n\n    modifier onlyOwner() {\n        require (msg.sender == owner, \"You are not the owner.\");\n        _;\n    }\n\n    function increment() public {\n        currentValue += incrementBy;\n    }\n\n    function changeIncrement(uint _newIncrement) public onlyOwner {\n        incrementBy = _newIncrement;\n    }\n\n}",
  "sourcePath": "/home/adam/DAPP1/truffle-ex/contracts/Increments.sol",
  "compiler": {
    "name": "solc",
    "version": "0.5.0+commit.1d4f565a.Emscripten.clang"
  },
  "schemaVersion": "3.0.1",
  "updatedAt": "2019-02-12T01:56:19.496Z",
  "devdoc": {
    "methods": {}
  },
  "userdoc": {
    "methods": {}
  }
}